S01F000050325F53696E676C655F536576656E5F5365676D656E742E7372656330
S11300000C942A000C943F000C943F000C943F0085
S11300100C943F000C943F000C943F000C943F0060
S11300200C943F000C943F000C943F000C943F0050
S11300300C943F000C943F000C943F000C943F0040
S11300400C943F000C943F000C943F000C943F0030
S11300500C943F0011241FBECFE5D4E0DEBFCDBF1A
S113006010E0A0E6B0E0EEEEF0E002C005900D92E4
S1130070A437B107D9F70E9441000C9475000C9481
S11300800000CF93DF93CDB7DEB764970FB6F89433
S1130090DEBF0FBECDBF81B38FEF81BB92B382BBF6
S11300A084E1E0E6F0E0DE01119601900D928A957C
S11300B0E1F780E090E015C0FC01EE0FFF1F21E0A6
S11300C030E02C0F3D1FE20FF31F208122BB3FE3E2
S11300D04DE023E0315040402040E1F700C00000F3
S11100E001968A30910540F3E4CFF894FFCFE7
S11300EEC000F900A400B000990092008200F8004C
S10700FE80009000EA
S9030000FC
