:100000000C942A000C943F000C943F000C943F0089
:100010000C943F000C943F000C943F000C943F0064
:100020000C943F000C943F000C943F000C943F0054
:100030000C943F000C943F000C943F000C943F0044
:100040000C943F000C943F000C943F000C943F0034
:100050000C943F0011241FBECFE5D4E0DEBFCDBF1E
:1000600010E0A0E6B0E0EAE9F1E002C005900D92F0
:10007000A437B107D9F70E9441000C94CB000C942F
:100080000000CF93DF93CDB7DEB764970FB6F89437
:10009000DEBF0FBECDBF8FEF81BB84BB84E1E0E646
:1000A000F0E0DE01119601900D928A95E1F760E093
:1000B00070E06DC0EEE0E2BBFB01EE0FFF1F01E060
:1000C00010E00C0F1D1FE00FF11FE081E5BBE3EC1A
:1000D000F9E03197F1F700C00000EDE0E2BBFD016F
:1000E000EE0FFF1F01E010E00C0F1D1FE00FF11FCE
:1000F000E081E5BBE3ECF9E03197F1F700C00000E7
:10010000EBE0E2BBFA01EE0FFF1F01E010E00C0F85
:100110001D1FE00FF11FE081E5BBE3ECF9E0319733
:10012000F1F700C00000E7E0E2BBF901EE0FFF1FAE
:1001300001E010E00C0F1D1FE00FF11FE081E5BB97
:10014000E3ECF9E03197F1F700C00000019602C03E
:1001500081E090E08A3191050CF4ACCF2F5F3F4FE6
:1001600002C020E030E02A30310594F34F5F5F4F4A
:1001700002C040E050E04A3051059CF3119602C0A5
:10018000A0E0B0E0AA30B105A4F36F5F7F4F6A3002
:0A0190007105B4F38CCFF894FFCF93
:10019A003F0006005B004F0066006D007D0007000F
:0401AA007F006F0063
:00000001FF
