S01E000050365F4B65795061645F4475616C375365676D656E742E73726563F4
S11300000C942A000C943F000C943F000C943F0085
S11300100C943F000C943F000C943F000C943F0060
S11300200C943F000C943F000C943F000C943F0050
S11300300C943F000C943F000C943F000C943F0040
S11300400C943F000C943F000C943F000C943F0030
S11300500C943F0011241FBECFE5D4E0DEBFCDBF1A
S113006010E0A0E6B0E0E4EFF1E002C005900D92EC
S1130070A437B107D9F70E94C6000C94F8000C9479
S113008000008FE788BB87E893E10197F1F700C090
S1130090000089B38E3F31F489B38E3FE9F381E0E8
S11300A090E0089589B38D3F31F489B38D3FE9F32E
S11300B084E090E0089589B38B3F31F489B38B3F9A
S11300C0E9F387E090E0089589B3873F31F489B379
S11300D0873FE9F38AE090E008958FEB88BB87E8D7
S11300E093E10197F1F700C0000089B38E3F31F42A
S11300F089B38E3FE9F382E090E0089589B38D3FA0
S113010031F489B38D3FE9F385E090E0089589B334
S11301108B3F31F489B38B3FE9F388E090E0089595
S113012089B3873F31F489B3873FE9F38BE090E0EB
S113013008958FED88BB8BE49DE10197F1F700C032
S1130140000089B38E3F31F489B38E3FE9F383E035
S113015090E0089589B38D3F31F489B38D3FE9F37D
S113016086E090E0089589B38B3F31F489B38B3FE7
S1130170E9F389E090E0089589B3873F09F081CFDE
S113018089B3873FE9F38CE090E00895CF93DF9340
S1130190CDB7DEB764970FB6F894DEBF0FBECDBF00
S11301A08FEF87BB81BB84BB90EF9ABB8BBB84E191
S11301B0E0E6F0E0DE01119601900D928A95E1F7F8
S11301C00E9441008A309105DCF72EEF22BB880F94
S11301D0991FE1E0F0E0EC0FFD1FE80FF91F8081AB
S11301E085BB83EC99E00197F1F700C00000E8CFEC
S10701F0F894FFCFAD
S11301F43F0006005B004F0066006D007D000700B1
S10702047F006F0004
S9030000FC
