S01E000050355F45696768745F536576656E5F5365676D656E742E737265639F
S11300000C942A000C943F000C943F000C943F0085
S11300100C943F000C943F000C943F000C943F0060
S11300200C943F000C943F000C943F000C943F0050
S11300300C943F000C943F000C943F000C943F0040
S11300400C943F000C943F000C943F000C943F0030
S11300500C943F0011241FBECFE5D4E0DEBFCDBF1A
S113006010E0A0E6B0E0EEE8F2E002C005900D92E8
S1130070A437B107D9F70E9441000C9445010C94B0
S11300800000CF93DF93CDB7DEB764970FB6F89433
S1130090DEBF0FBECDBF8FEF81BB84BB84E1E0E642
S11300A0F0E0DE01119601900D928A95E1F7A12C02
S11300B0B12CE6C0EEEFE2BBF501EE0FFF1F882482
S11300C08394912C8C0E9D1EE80DF91DE081E5BBF7
S11300D0E3EFF1E03197F1F700C00000EDEFE2BB90
S11300E0FB01EE0FFF1F88248394912C8C0E9D1E20
S11300F0E80DF91DE081E5BBE3EFF1E03197F1F79D
S113010000C00000EBEFE2BBFD01EE0FFF1F8824EF
S11301108394912C8C0E9D1EE80DF91DE081E5BBA6
S1130120E3EFF1E03197F1F700C00000E7EFE2BB45
S1130130F801EE0FFF1F88248394912C8C0E9D1ED2
S1130140E80DF91DE081E5BBE3EFF1E03197F1F74C
S113015000C00000EFEEE2BBF701EE0FFF1F8824A2
S11301608394912C8C0E9D1EE80DF91DE081E5BB56
S1130170E3EFF1E03197F1F700C00000EFEDE2BBEF
S1130180F601EE0FFF1F88248394912C8C0E9D1E84
S1130190E80DF91DE081E5BBE3EFF1E03197F1F7FC
S11301A000C00000EFEBE2BBFA01EE0FFF1F882452
S11301B08394912C8C0E9D1EE80DF91DE081E5BB06
S11301C0E3EFF1E03197F1F700C00000EFE7E2BBA5
S11301D0F901EE0FFF1F88248394912C8C0E9D1E31
S11301E0E80DF91DE081E5BBE3EFF1E03197F1F7AC
S11301F000C00000019602C081E090E081339105C7
S113020008F458CF2F5F3F4F02C020E030E02A307F
S1130210310590F34F5F5F4F02C040E050E04A3039
S1130220510598F3FFEFCF1ADF0A02C0C12CD12C7D
S11302308AE0C816D10488F3EFEFEE1AFE0A02C072
S1130240E12CF12CFAE0EF16F10480F30F5F1F4F5D
S113025002C000E010E00A30110590F3119602C0CC
S1130260A0E0B0E0AA30B105A0F36F5F7F4F02C0F9
S113027060E070E06A30710598F38FEFA81AB80A4D
S1110280EAE0AE16B104A0F312CFF894FFCF5B
S113028E3F0006005B004F0066006D007D00070016
S107029E7F006F006A
S9030000FC
