:100000000C942A000C943F000C943F000C943F0089
:100010000C943F000C943F000C943F000C943F0064
:100020000C943F000C943F000C943F000C943F0054
:100030000C943F000C943F000C943F000C943F0044
:100040000C943F000C943F000C943F000C943F0034
:100050000C943F0011241FBECFE5D4E0DEBFCDBF1E
:1000600010E0A0E6B0E0E4E5F5E002C005900D92F6
:10007000AA38B107D9F70E947E010C94A8020C940B
:10008000000082BB84E085BB83EF91E00197F1F72C
:1000900000C0000015BA089582E090E00E9441007F
:1000A00088E390E00E9441008CE090E00E944100D3
:1000B000089582BB85E085BB83EF91E00197F1F75E
:1000C00000C0000081E085BB08950F931F93CF937C
:1000D000DF938C01C0E0D0E012C0F801EC0FFD1FEF
:1000E000808190E00E9459008FEC97E00197F1F732
:1000F00000C0000086E090E00E9441002196F801D7
:1001000001900020E9F73197E01BF10BEC17FD0798
:1001100020F7DF91CF911F910F9108950F931F93B7
:10012000CF93DF93CDB7DEB72B970FB6F894DEBF32
:100130000FBECDBF2BE0E0E6F0E0DE0111960190AE
:100140000D922A95E1F718161906E4F46AE070E0BA
:100150000E9480028C01CB010E948E00E1E0F0E061
:10016000EC0FFD1FE00FF11F808190E00E9459000D
:1001700086E090E00E94410083EC99E00197F1F75E
:1001800000C000002B960FB6F894DEBF0FBECDBFA7
:10019000DF91CF911F910F9108958FE788BB87E87A
:1001A00093E10197F1F700C0000089B38E3F31F46D
:1001B00089B38E3FE9F387E090E0089589B38D3FDE
:1001C00031F489B38D3FE9F384E090E0089589B379
:1001D0008B3F31F489B38B3FE9F381E090E00895E0
:1001E00089B3873F31F489B3873FE9F385E690E02F
:1001F00008958FEB88BB87E893E10197F1F700C082
:10020000000089B38E3F31F489B38E3FE9F388E073
:1002100090E0089589B38D3F31F489B38D3FE9F3C0
:1002200085E090E0089589B38B3F31F489B38B3F2B
:10023000E9F382E090E0089589B3873F31F489B310
:10024000873FE9F380E090E008958FED88BB8BE471
:100250009DE10197F1F700C0000089B38E3F31F4B2
:1002600089B38E3FE9F389E090E0089589B38D3F2B
:1002700031F489B38D3FE9F386E090E0089589B3C6
:100280008B3F31F489B38B3FE9F383E090E008952D
:1002900089B3873F31F489B3873FE9F387E690E07C
:1002A00008958FEE88BB8BE49DE10197F1F700C0C4
:1002B000000089B38E3F31F489B38E3FE9F388E6BD
:1002C00090E0089589B38D3F31F489B38D3FE9F310
:1002D00089E690E0089589B38B3F31F489B38B3F71
:1002E000E9F38AE690E0089589B3873F09F055CF96
:1002F00089B3873FE9F38BE690E008958FEF87BBE2
:1003000081BB84BB90EF9ABB8BBB0E944C0080E802
:1003100090E00E9441008BE690E00E94650087EA31
:1003200091E60197F1F700C0000081E090E00E94A3
:10033000410080E890E00E9441008AE790E00E943E
:10034000650084E890E0882E982E0E94CD00EC0194
:1003500001978930910538F09E01285631092430E3
:10036000310508F060C0E7EAF1E63197F1F700C027
:1003700000000997D8F4892D90E0F0E084389F07B9
:1003800049F4CE010E948E0086E090E00E94410078
:100390005E01DBCF84589040C1F2CE010E948E00F6
:1003A00086E090E00E9441008E01CFCFC836D10593
:1003B00061F481E890E0982E8FE290E00E9459006D
:1003C00086E090E00E944100C0CFC936D10561F4BB
:1003D00083E890E0982E8AE290E00E94590086E03F
:1003E00090E00E944100B1CFCA36D10561F485E8A2
:1003F00090E0982E8DE290E00E94590086E090E017
:100400000E944100A2CFCB36D10509F09ECF87E8EC
:1004100090E0982E8BE290E00E94590086E090E0F8
:100420000E94410092CFC536D105E1F481E090E011
:100430000E94410087EA91E60197F1F700C00000B1
:1004400080E890E00E9441008AE790E00E94650009
:10045000982C00E010E0A12CB12CC12CD12CE12C67
:10046000F12C73CFC736D10509F06FCF80EC90E047
:100470000E944100892D90E0E0E087389E0721F43A
:100480007501E00EF11E28C0F0E085389F0781F469
:10049000A016B1063CF47801EA18FB08CC24C394FA
:1004A000D12C1AC07501E01AF10AC12CD12C14C04C
:1004B00020E08338920741F4A09E7001A19EF00CC9
:1004C000B09EF00C112408C08158904029F4C50159
:1004D000B8010E9480027B01F1E0CF16D10461F4E3
:1004E0008DE290E00E94590086E090E00E94410079
:1004F000C7010E948E0029CFC7010E948E0025CF20
:1005000097FB072E16F4009407D077FD09D00E94C0
:10051000940207FC05D03EF4909581959F4F089575
:10052000709561957F4F0895AA1BBB1B51E107C0D1
:10053000AA1FBB1FA617B70710F0A61BB70B881F73
:10054000991F5A95A9F780959095BC01CD01089502
:04055000F894FFCF4D
:10055400303132333435363738390057656C636F90
:100564006D65202E2E2E2E2E2E00456E7465723A49
:0A057400002F002A002D002B0000CC
:00000001FF
