S01B000050395F6B65795061645F4D6F746F725F4C43442E7372656321
S11300000C942A000C943F000C943F000C943F0085
S11300100C943F000C943F000C943F000C943F0060
S11300200C943F000C943F000C943F000C943F0050
S11300300C943F000C943F000C943F000C943F0040
S11300400C943F000C943F000C943F000C943F0030
S11300500C943F0011241FBECFE5D4E0DEBFCDBF1A
S113006010E0A0E6B0E0E8E0F4E002C005900D92F4
S1130070AC39B107D9F70E945A010C9402020C94CE
S11300800000282F207F2C5F22BBE3EFF1E03197A3
S1130090F1F700C0000022B3245022BB8295929550
S11300A0907F9827807F98278C5F82BB83EF91E0B5
S11300B00197F1F700C0000082B3845082BB089519
S11300C082E090E00E94410088E290E00E944100BA
S11300D08CE090E00E9441000895282F207F2B5F40
S11300E022BBE3EFF1E03197F1F700C0000022B347
S11300F0245022BB82959295907F9827807F9827E1
S11301008B5F82BB83EF91E00197F1F700C00000A1
S113011082B3845082BB08950F931F93CF93DF93D0
S11301208C01C0E0D0E012C0F801EC0FFD1F80810B
S113013090E00E946D008FEC97E00197F1F700C00A
S1130140000086E090E00E9441002196F8010190B1
S11301500020E9F73197E01BF10BEC17FD0720F7BE
S1130160DF91CF911F910F910895CF93DF931816CC
S11301701906C4F46AE070E00E94DA01EC01CB01D4
S11301800E94B500C05ADF4F888190E00E946D0044
S113019086E090E00E94410083EC99E00197F1F73A
S11301A000C00000DF91CF9108958FED88BB87E8F0
S11301B093E10197F1F700C0000089B38E3F31F459
S11301C089B38E3FE9F381E090E0089589B38D3FD0
S11301D031F489B38D3FE9F384E090E0089589B365
S11301E08B3F31F489B38B3FE9F387E090E00895C6
S11301F089B3873F31F489B3873FE9F38AE090E01C
S113020008958FEB88BB87E893E10197F1F700C06D
S1130210000089B38E3F31F489B38E3FE9F382E065
S113022090E0089589B38D3F31F489B38D3FE9F3AC
S113023085E090E0089589B38B3F31F489B38B3F17
S1130240E9F388E090E0089589B3873F31F489B3F6
S1130250873FE9F38BE090E008958FE788BB8BE458
S11302609DE10197F1F700C0000089B38E3F31F49E
S113027089B38E3FE9F383E090E0089589B38D3F1D
S113028031F489B38D3FE9F386E090E0089589B3B2
S11302908B3F31F489B38B3FE9F389E090E0089513
S11302A089B3873F09F081CF89B3873FE9F38CE0B5
S11302B090E00895CF93DF93CDB7DEB72A970FB6BA
S11302C0F894DEBF0FBECDBF8FEF81BB87BB84BB6D
S11302D090EF9ABB8BBB8AE0EBE6F0E0DE0111966F
S11302E001900D928A95E1F70E9460000E94D5006A
S11302F08C0181E090E00E94410083EC99E0019739
S1130300F1F700C0000083E890E00E94410087EA12
S113031091E60197F1F700C00000C8010E94B50002
S113032089819A810817190759F489E085BB83EC00
S113033090E00E94410085E790E00E948C00D6CFB7
S11303408B819C810817190759F486E085BB83ECDF
S113035090E00E9441008EE790E00E948C00C6CF9E
S11303608D819E810817190759F481E085BB83ECC0
S113037090E00E94410088E890E00E948C00B6CF93
S11303808F8198850817190759F488E085BB83EC99
S113039090E00E9441008EE890E00E948C00A6CF7D
S11303A015BA83EC90E00E94410085E990E00E9438
S11303B08C009CCF97FB072E16F4009407D077FD92
S11303C009D00E94EE0107FC05D03EF4909581957A
S11303D09F4F0895709561957F4F0895AA1BBB1B8D
S11303E051E107C0AA1FBB1FA617B70710F0A61B31
S11303F0B70B881F991F5A95A9F780959095BC0152
S10B0400CD010895F894FFCF2B
S113040830313233343536373839000200080004C5
S1130418000600000020466F727761726400204273
S113042861636B7761726400204C656674002052C6
S10F043869676874002053746F70000042
S9030000FC
