:100000000C942A000C943F000C943F000C943F0089
:100010000C943F000C943F000C943F000C943F0064
:100020000C943F000C943F000C943F000C943F0054
:100030000C943F000C943F000C943F000C943F0044
:100040000C943F000C943F000C943F000C943F0034
:100050000C943F0011241FBECFE5D4E0DEBFCDBF1E
:1000600010E0A0E6B0E0E0E4F2E002C005900D92FE
:10007000A839B107D9F70E94B5000C941E010C9461
:100080000000282F207F2C5F22BBE3EFF1E03197A7
:10009000F1F700C0000022B3245022BB8295929554
:1000A000907F9827807F98278C5F82BB83EF91E0B9
:1000B0000197F1F700C0000082B3845082BB08951D
:1000C00082E090E00E94410088E290E00E944100BE
:1000D0008CE090E00E9441000895282F207F2B5F44
:1000E00022BBE3EFF1E03197F1F700C0000022B34B
:1000F000245022BB82959295907F9827807F9827E5
:100100008B5F82BB83EF91E00197F1F700C00000A5
:1001100082B3845082BB08950F931F93CF93DF93D4
:100120008C01C0E0D0E012C0F801EC0FFD1F80810F
:1001300090E00E946D008FEC97E00197F1F700C00E
:10014000000086E090E00E9441002196F8010190B5
:100150000020E9F73197E01BF10BEC17FD0720F7C2
:10016000DF91CF911F910F9108958FEF81BB84BBD9
:100170008ABB0E94600083E890E00E94410080E614
:1001800090E00E948C004BC015BA81E090E00E9484
:10019000410080EC90E00E946D008BE690E00E94B0
:1001A0008C0087EA91E60197F1F700C0000086E035
:1001B00085BB81E090E00E94410083EC90E00E94CA
:1001C0006D008CE790E00E948C009FE32DE083E0BF
:1001D000915020408040E1F700C0000088E085BBDE
:1001E00081E090E00E94410083EC90E00E946D006D
:1001F00087E890E00E948C009FE32DE083E091501F
:1002000020408040E1F700C0000081E090E00E94C3
:10021000410083EC99E00197F1F700C0000089B339
:10022000813009F4B1CF89E085BB83EC90E00E9476
:1002300041008DE890E00E948C009DCFF894FFCFA4
:100240002E2E4F626A6563742E2E004465746563BA
:100250007465642053746F70696E67002042616337
:100260006B77617264200052696768740020466F82
:08027000727761726420000046
:00000001FF
