:100000000C942A000C943F000C943F000C943F0089
:100010000C943F000C943F000C943F000C943F0064
:100020000C943F000C943F000C943F000C943F0054
:100030000C943F000C943F000C943F000C943F0044
:100040000C943F000C943F000C943F000C943F0034
:100050000C943F0011241FBECFE5D4E0DEBFCDBF1E
:1000600010E0A0E6B0E0E2EFF3E002C005900D92F0
:10007000A039B107D9F70E944F010C94F7010C94F5
:100080000000282F207F2B5F22BBE3EFF1E03197A8
:10009000F1F700C0000022B3245022BB8295929554
:1000A000907F9827807F98278B5F82BB83EF91E0BA
:1000B0000197F1F700C0000082B3845082BB08951D
:1000C000282F207F2C5F22BBE3EFF1E03197F1F77F
:1000D00000C0000022B3245022BB82959295907FED
:1000E0009827807F98278C5F82BB83EF91E00197F0
:1000F000F1F700C0000082B3845082BB089582E013
:1001000090E00E94600088E290E00E9460008CE035
:1001100090E00E94600008950F931F93CF93DF93A8
:100120008C01C0E0D0E008C090E00E94410086E071
:1001300090E00E9460002196F801EC0FFD1F808185
:100140008111F2CFDF91CF911F910F9108950F93FD
:100150001F93CF93DF93EC01892B21F480E390E090
:100160000E94410084E090E00E9460000CC0CE013B
:100170006AE070E00E94CF01062F172FC0960E9400
:100180004100C02FD12F209791F7DF91CF911F9180
:100190000F9108958FED88BB87E893E10197F1F700
:1001A00000C0000089B38E3F31F489B38E3FE9F37C
:1001B00081E090E0089589B38D3F31F489B38D3F9C
:1001C000E9F384E090E0089589B38B3F31F489B37B
:1001D0008B3FE9F387E090E0089589B3873F31F4DE
:1001E00089B3873FE9F38AE090E008958FEB88BBFD
:1001F00087E893E10197F1F700C0000089B38E3FD3
:1002000031F489B38E3FE9F382E090E0089589B339
:100210008D3F31F489B38D3FE9F385E090E0089597
:1002200089B38B3F31F489B38B3FE9F388E090E0E9
:10023000089589B3873F31F489B3873FE9F38BE0B1
:1002400090E008958FE788BB8BE49DE10197F1F77B
:1002500000C0000089B38E3F31F489B38E3FE9F3CB
:1002600083E090E0089589B38D3F31F489B38D3FE9
:10027000E9F386E090E0089589B38B3F31F489B3C8
:100280008B3FE9F389E090E0089589B3873F09F057
:1002900081CF89B3873FE9F38CE090E00895CF9355
:1002A000DF93CDB7DEB72A970FB6F894DEBF0FBE47
:1002B000CDBF8FEF81BB87BB84BB90EF9ABB8BBB5D
:1002C0008AE0E0E6F0E0DE01119601900D928A9559
:1002D000E1F70E947F000E94CA008C0181E090E05B
:1002E0000E94600083EC99E00197F1F700C00000E4
:1002F00083E890E00E94600087EA91E60197F1F7B9
:1003000000C00000C8010E94A70089819A810817D7
:10031000190759F489E085BB83EC90E00E946000E6
:100320008AE690E00E948C00D6CF8B819C810817D2
:10033000190759F486E085BB83EC90E00E946000C9
:1003400083E790E00E948C00C6CF8D819E810817C4
:10035000190759F481E085BB83EC90E00E946000AE
:100360008DE790E00E948C00B6CF8F8198850817AA
:10037000190759F488E085BB83EC90E00E94600087
:1003800083E890E00E948C00A6CF15BA83EC90E041
:100390000E9460008AE890E00E948C009CCF97FB4E
:1003A000072E16F4009407D077FD09D00E94E301D0
:1003B00007FC05D03EF4909581959F4F0895709568
:1003C00061957F4F0895AA1BBB1B51E107C0AA1F6F
:1003D000BB1FA617B70710F0A61BB70B881F991FE6
:1003E0005A95A9F780959095BC01CD010895F89490
:0203F000FFCF3D
:1003F2000200080004000600000020466F727761C8
:10040200726400204261636B7761726400204C6504
:10041200667400205269676874002053746F70001C
:00000001FF
