S01F000050335F446F75626C655F536576656E5F5365676D656E742E7372656336
S11300000C942A000C943F000C943F000C943F0085
S11300100C943F000C943F000C943F000C943F0060
S11300200C943F000C943F000C943F000C943F0050
S11300300C943F000C943F000C943F000C943F0040
S11300400C943F000C943F000C943F000C943F0030
S11300500C943F0011241FBECFE5D4E0DEBFCDBF1A
S113006010E0A0E6B0E0EEE2F1E002C005900D92EF
S1130070A437B107D9F70E9441000C9495000C9461
S11300800000CF93DF93CDB7DEB764970FB6F89433
S1130090DEBF0FBECDBF8FEF84BB81BB84E1E0E642
S11300A0F0E0DE01119601900D928A95E1F760E08F
S11300B070E037C021E022BBFB01EE0FFF1F21E0FF
S11300C030E02C0F3D1FE20FF31F208125BBE1EE32
S11300D0F4E03197F1F700C0000022E022BBFA01FE
S11300E0EE0FFF1F21E030E02C0F3D1FE20FF31F46
S11300F0208125BBE1EEF4E03197F1F700C0000068
S1130100019602C081E090E08133910598F24F5F3F
S11301105F4F02C040E050E04A30510598F36F5FF2
S11101207F4F66307105B0F3C2CFF894FFCF65
S113012EC000F900A400B000990092008200F8000B
S107013E80009000A9
S9030000FC
