S01700005031305F444D445F446973706C61792E73726563F3
S11300000C942A000C9434000C9434000C943400A6
S11300100C9434000C9434000C9434000C9434008C
S11300200C9434000C9434000C9434000C9434007C
S11300300C9434000C9434000C9434000C9434006C
S11300400C9434000C9434000C9434000C9434005C
S11300500C94340011241FBECFE5D4E0DEBFCDBF25
S11300600E9436000C944D000C9400008FEF87BB67
S11300708ABB8EE78BBB8EEF88BB87EA91E601973C
S1130080F1F700C0000088E18BBB18BA87EA91E65B
S11100900197F1F700C00000ECCFF894FFCF09
S9030000FC
