:100000000C942A000C9434000C9434000C943400AA
:100010000C9434000C9434000C9434000C94340090
:100020000C9434000C9434000C9434000C94340080
:100030000C9434000C9434000C9434000C94340070
:100040000C9434000C9434000C9434000C94340060
:100050000C94340011241FBECFE5D4E0DEBFCDBF29
:100060000E9436000C944E000C9400001ABA80EFE7
:100070008BBB2FE38DE093E0215080409040E1F76F
:1000800000C000008FE08BBB2FE38DE093E0215098
:1000900080409040E1F700C00000E9CFF894FFCF26
:00000001FF
